S013000053575F5A425F56315F305F302E73333738
S214000000E01A0020DDA80100113C0000153C0000AD
S214000010A70B0000000000000000FFFF54000000D7
S21400002004180F00000000000000000000000000A0
S21400003000000000000000000000000000000000BB
S214000040000000000000000000000000A701000003
S20800005000000000A7
S214000054E01A0020DDA80100113C0000153C000059
S214000064A70A0A010002000004180FACA067A70143
S2140000740000000000000000000000000000000077
S2140000840000000000000000000000000000000067
S2140000940000000000000000FFFFFFFFFFFFFFFF5F
S2140000A4FFFFFFFF006007000000000000000000E4
S2140000B4FFFFFFFFFFFFFFFF8000000000000000BF
S2140000C40000000000000000000000000000000027
S2140000D40000000000000000144F0020144F002011
S2140000E4E01A00209CB00300B82903008011002009
S2100000F45C11002000E007000000000087
S214000200E01A0020DDA80100113C0000153C0000AB
S214000210E5890000193C0000213C0000DBA8010035
S214000220DBA80100DBA80100DBA80100DBA80100B9
S214000230253C0000DBA80100DBA80100DBA80100CC
S214000240983C0000983C0000983C0000983C000059
S214000250983C00006158000091650000983C000042
S214000260983C0000983C000065560000E9B8000085
S214000270983C0000983C0000983C0000983C000029
S214000280983C0000983C0000983C0000DBA8010069
S214000290983C0000BD4E0000983C0000983C0000D2
S2140002A0983C0000BD4F0000954F0000983C0000B1
S2140002B0983C0000983C0000983C0000AD8201008D
S2140002C0398201003582010075790100A98201009A
S2140002D03D8201005D82010041820100DBA8010031
S2140002E0F1820100983C0000983C0000F93E0000B6
S2140002F0983C0000983C0000983C0000DBA80100F9
S214000300983C0000983C0000983C0000983C000098
S214000310983C0000983C0000983C0000983C000088
S214000320983C0000983C0000983C0000983C000078
S208000330983C0000F0
S214000334F8B500BFF8BC08BC9E467047F8B500BFC9
S214000344F8BC08BC9E46704710B5054C237833B9F4
S214000354044B13B1044800E000BF0123237010BD12
S214000364C023002000000000B4A7030008B5034B18
S2140003741BB10349034800E000BF08BD00000000AD
S214000384C4230020B4A70300154B002B08BF134B4F
S2140003949D46A3F5803A00218B460F461348144A1F
S2140003A4121A32F0E3FA0F4B002B00D098470E4B8C
S2140003B4002B00D098470020002104000D000D48B3
S2140003C4002802D00C4800E000BF32F091FA20006A
S2140003D429000BF0B1FC32F077FA00BF00000800E9
S2140003E4E01A00200000000000000000C0230020E7
S2140003F4144F002000000000000000001FB5012379
S2140004040022009306210DF10F030EF004F820B924
S2140004149DF80F3023B103F03FFC05B05DF804FBF4
S21400042403F03BFCF9E7000030B50024144D85B01A
S2140004342C700CF043FD022817D100900DF10E032A
S2140004442246032101200DF0E6FFBDF80E0048B158
S214000454204603F023FC4FF47A6128461FF026F862
S21400046405B030BD03F018FCFAE709F073FA054B43
S2140004740090054A054901200FF0C8F9F0E700BFCF
S214000484184000207A440300B8290300BD2903005D
S21400049408B50CF013FD02280CD10022064B0120EF
S2140004A41A7007F053FFBDE80840024603490120CE
S2140004B40FF0ACB908BD00BF104000200B2A0300A3
S2140004C413B5044600900A4B0A4A0B4901200FF064
S2140004D49DF95CB12246094901200FF097F9009472
S2140004E4074B084A044901200FF090F902B010BDEA
S2140004F4D1290300B8290300BD290300DA29030023
S2140005047A440300062A0300FFF778BF09B9FFF709
S21400051475BF704738B5C37B05460BB1832038BD1D
S214000524C47C2CB902F002FC20B9EB7B002BF5D17D
S2140005348120F4E72046F2E738B5C37B05460BB1C5
S214000544832038BDC47C6CB9017D82898B1C9A4299
S2140005540AD380680EF0A9FC07F0B6FE30B9EB7B30
S214000564002BEDD18120ECE78020EAE72046E8E77F
S214000574C37B10B504460BB1832010BDC37C1BB1EE
S214000584012B10D08120F8E7017D82898B1C9A42CA
S2140005940CD380680EF089FC08F09CFA40B9E37B23
S2140005A4002BE9D1EEE708F0ADFAF7E78020E4E7A0
S2140005B40020E2E7F8B5C37B04460BB18320F8BD00
S2140005C4C37C052B29D8DFE803F0032A35414C4FBA
S2140005D4057D8289AB1C9A4201D28020EFE7ADB23A
S2140005E4294680680EF061FC0646A0680235284459
S2140005F4A7890EF073FC284401308742EDD32946C0
S214000604A289A0680EF058FC0146304607F05EFF4B
S214000614002848D1E37B002BD0D18120CFE7017D91
S21400062482898B1C9A42D8D380680EF03EFC07F071
S2140006346DFFEDE7037D81895A1C9142CDD3826814
S214000644591C1144D05C07F091FFE1E7017D8289D3
S2140006548B1C9A42C1D380680EF027FC08F008F879
S214000664D6E708F061F8D3E7057D8289AB1C9A4289
S214000674B3D3ADB2294680680EF017FC0646A068D0
S21400068402352844A7890EF029FC28440130874205
S214000694A3D32946A289A0680EF00EFC0146304674
S2140006A408F08AF8B4E7002089E7C37B2DE9F7430E
S2140006B40446002B40F0BA80C37C062B00F2B880B8
S2140006C4DFE803F0044A5A6A7585A800057D828926
S2140006D4AB1C9A4203D2802003B0BDE8F083ADB2CF
S2140006E4294680680EF0E1FBA289E91C8A42064688
S2140006F405F10203EFD3881C8242ECD3A0680535CB
S214000704C75C0EF0D2FB8046A068B4F80C90284470
S2140007140EF0E4FB284401308145DCD32946A28947
S214000724A0680EF0C9FB8146A06828440EF0D6FBEC
S21400073401300544A0684B4610FA85F500954246FC
S214000744394630460AF0B4FD002873D1E37B002B0B
S21400075414BF83208120BFE7057D8289EB1C9A4263
S214000764B9D3ADB2294680680EF09FFBA368023564
S214000774595D0AF011FEE7E7057D8289EB1C9A4273
S214000784A9D3ADB2294680680EF08FFBA368023564
S214000794595D0AF035FAD7E7017D82898B1C9A42A7
S2140007A499D380680EF081FB0AF098FACCE7057DB1
S2140007B48289EB1C9A428ED3ADB2294680680EF02D
S2140007C474FBA3680235595D0AF0DAFBBCE7057DC5
S2140007D48289AB1C9A42FFF47EAFADB2294680688C
S2140007E40EF063FBA289E91C8A42064605F1020361
S2140007F4FFF471AFA068C75C8B1C9A4207D30EF057
S21400080454FB0246394630460AF018FC9CE74FF67D
S214000814FF72F7E7017D82898B1C9A42FFF45BAF77
S21400082480680EF042FB0AF0C3FA8DE7832053E794
S214000834812051E700204FE7C37B10B504460BB177
S214000844832010BDC37C012B0BD003D3022B0BD00B
S2140008548120F6E709F03CFA48B9E37B002BEFD198
S214000864F6E709F045FAF7E709F052FAF4E700204C
S214000874E7E738B5C37B0446002B437D14BF8325C6
S214000884C325012B17D10368028A598858790DF0BD
S2140008947BF880B123685B88062B2CD8DFE803F04E
S2140008A4272B2B0627272700812524E02046BDE892
S2140008B43840FFF741BE637DEBB92368228A598826
S2140008C458790DF058F8B0B123685B88042B19D01A
S2140008D407D893B1032B0ED12046BDE83840FFF766
S2140008E447BE062B18D012D3B3F5806F03D1E37B33
S2140008F4002BD9D08325284638BD2046BDE838408D
S214000904FFF708BE2046BDE83840FFF753BE204632
S214000914BDE83840FFF7C9BE2046BDE83840FFF7BB
S2140009248BBF704701207047012070470120704735
S2140009347047002070470020704700207047002052
S2140009447047002070470020704701207047012040
S2140009547047B5207047002070470020704700207D
S214000964704700207047704700207047704700208B
S2140009747047704700207047842070477047704760
S21400098470470120704700000246024901200EF01D
S2140009943DBF00BF2C2A03007047002070477047F5
S2140009A4704770470020704700207047034B1B6851
S2140009B41878012808BF0220704700BF803800203E
S2140009C40020704703460120024AC3E903200022A0
S2140009D41A7070470100FEFF704700207047002021
S2140009E470470020704700207047002070470020A2
S2140009F470477047B5207047002070470020704746
S214000A0470470020704770477047B520704770479E
S214000A147047704700207047704770470023FF21D7
S214000A24084A137082F8783082F8653082F8773096
S214000A3482F8793082F87A1082F87B30024A1360A2
S214000A44704700BFDC23002020400020F8B50D4688
S214000A548C680A6806462849202003F0BAFF6B68AB
S214000A647BB92649202003F0B4FF20200AF020FD9D
S214000A742349202003F0C2FFBDE8F84020200AF0F6
S214000A8417BD002EF1D01F4D1F4E204F013C14F809
S214000A94013F23B91A49202003F0B0FFE5E7752B80
S214000AA418D0762B18D0772B18D0732B18D0722B1F
S214000AB418D0712B18D0622B18D06E2B18D02A2B76
S214000AC418D01349134A212B18BF1146202003F0CF
S214000AD480FFDCE72946F9E73146F7E73946F5E7CC
S214000AE40D49F3E70D49F1E70D49EFE70D49EDE749
S214000AF40D49EBE70D49E9E78D6A0300E72A030091
S214000B04982A0300A52A0300992A0300B02A0300A2
S214000B14F12A0300EE2A0300BC2A0300C62A0300B7
S214000B24D12A0300DC2A0300E62A0300EB2A03008A
S214000B34F0B50026204A92F87B30184452FA80F02A
S214000B4490F865C090F8665030461C4BA5EB0C0533
S214000B541F78EDB2F4B2A54225D90CEB0603134474
S214000B645B7811B10CB92D2B17D0782B1FD0582BCE
S214000B7405D108B137240AE0013C012C14D9602BB6
S214000B8417D8402BF6D83A2B34BF302400241B1B2E
S214000B94DBB29F4203D900FB07300136DAE70523B0
S214000BA4002082F87930F0BD10270020F5E70028F1
S214000BB4E2D05724EBE700BFDC230020781C00209B
S214000BC4FFF72CBF034B93F8770093F87B30C01ADB
S214000BD4C0B27047DC2300200021FFF7A9BF000045
S214000BE410B50A4B93F87B20024453FA82F292F82B
S214000BF4652013445C78A4F12D0359425941FFF74C
S214000C0497FF2D2C08BF404210BD00BFDC230020F8
S214000C1430B50C4A92F87B300344C043DBB2C00FB5
S214000C2439B1D51895F8664095F86550641B241AB2
S214000C340C7042FA83F393F865301844024B184458
S214000C4430BD00BFDC230020DD230020F7B51546A9
S214000C540E460DF107011C46FFF7DAFF9DF8073034
S214000C640746AB4288BF8DF807501CB19DF8074075
S214000C742C1BE4B222463046002100F079FB3019E2
S214000C849DF80720394600F017FB9DF8070003B0CF
S214000C94F0BD38B50C4601230822FFF7D7FF04F150
S214000CA40803621E043413F8011D12F8015FA34200
S214000CB41D701170F7D138BD38B5054601460120C0
S214000CC4FFF7C4FED5E901436CB91C46084D2368FA
S214000CD463B12946202003F07CFE21460020FFF75E
S214000CE4B5FE0C34F3E71B786E2BEFD038BD00BF8F
S214000CF41245030008B50449202003F06AFEBDE847
S214000D04084020200AF0D4BB592A030038B5FFF760
S214000D14F1FF0024054D61190C34631953F80C3C9B
S214000D2403B938BD0020FFF791FEF4E7EC38030062
S214000D342DE9F84F1F4B204D53F820201F49202043
S214000D4403F047FE2B681BB9BDE8F84FFFF7DEBF7C
S214000D541B4FFFF7CFFF0026B946DFF86CA097F8C5
S214000D647B30F4B2013B9C4204DB2868BDE8F84FB4
S214000D74FFF7A2BF47FA86F393F8658000234C4436
S214000D84C84494F8662094F8651003F1010B521ACF
S214000D94DBB2D2B2934205D30A49202003F019FEEF
S214000DA40136DCE743445A785146202003F011FE0E
S214000DB45B46E6E77C1C002020400020542A030003
S214000DC4DC23002013450300508203002DE9F74F6F
S214000DD4884C94F87730002B00F0A180864B671C73
S214000DE41B7813F0010F1FD00025844E14E06319FE
S214000DF493F8662093F865302020D21A44FA85F3D7
S214000E0493F86510D2B239440AF04DFB31462020DF
S214000E1403F0DFFD0135EDB294F87730AB42E6D847
S214000E247749202003F0D5FD002694F87730DFF8C4
S214000E34DCE10193734B4FF00008714645461EF8FB
S214000E44012B91F801C007EB020AACEB020C5FFA27
S214000E548CFC1868002852D00138D14619E02AB90B
S214000E64002D4AD04FF001080C33F2E719F8011BA5
S214000E74A1F1410BBBF1190F98BF2031A2F1410B30
S214000E8498BFC9B2BBF1190F9CBF2032D2B28A42B6
S214000E94EAD1A9EB0A01614510F8012FDFD1002A37
S214000EA4DED11D46584B01361D6094F87B30F6B2F1
S214000EB4013384F87B30D5E90123002A35D01B782A
S214000EC46E2B31D03F2B23D04FF000094FF0070B89
S214000ED4C846042394F87710AA68B14212F808703A
S214000EE42BD8AFB1904498F801302A2B10D0212F7C
S214000EF41CBF032384F879300AE01D46B4E7B8F132
S214000F04000F01D1002DCDD10223002584F87930BD
S214000F1494F87900002869D168680DF0B5FC03B030
S214000F24BDE8F04FFFF77ABD1346019AB24282D865
S214000F3403221D4684F87920EAE7732F09D8712F17
S214000F440BD2212F1FD0622F3CD0002F4BD103226F
S214000F5446E0A7F17502022A45D8752F29D0762FC8
S214000F642AD0732F2BD0722F47F6FF7A18BF4FF074
S214000F74FF3A012148460193FFF7DAFD5045019BED
S214000F8401D984F87930AA68424452782A2A94F817
S214000F9479201CBF08F101085FFA88F8002AB7D147
S214000FA4212F1FBF013609F10109F6B25FFA89F94C
S214000FB490E74FF0FF0ADCE74FF6FF7AD9E74FF0E9
S214000FC47F0AD6E794F87B204A4454FA82F292F8D1
S214000FD4652022445278222AD5D07B2AD3D00522F3
S214000FE484F87920CFE784F879B0CCE7FFF7A0FE41
S214000FF495E700BFDC230020582400201345030097
S214001004962A0300EC3803002040002041240020E8
S2140010142DE9F34106460D464FF000085C4C5D4F43
S21400102466B90DF1070128460AF038FA78B1262881
S21400103400F0A980012384F879304BE0002D00F0FD
S214001044A28016F8013B013D8DF80730EDB23A78E0
S2140010549DF807300D2A3B7001D10A2BE0D00D2BEA
S2140010640CD0A3F10A025142514122788846042A40
S214001074D6D8DFE802F0051D263C31000121F4E74E
S21400108421B1FFF7A3FE4FF00108C9E7202B63D078
S214001094222B07D10223237094F87820642A5DD18A
S2140010A40623C8E77B2B01D10323F4E70123F2E7E9
S2140010B409B9202BF0D194F87730112B3FD10323B4
S2140010C4B9E7222BF7D00029E6D005234FF0010814
S2140010D484F8793004232370B8F1000FA0D094F874
S2140010E4790008B1FFF724FEFFF798FC98E77D2BFC
S2140010F494F87A0003D1FF28DDD005239BE7602B04
S21400110413D8402B13D8392B8CBF002230229A1ABE
S214001114D2B20F2A10D8FF280BD0FF2302EB0012FE
S2140011248DF8072084F87A30B6E75722EFE737229F
S214001134EDE784F87A2073E7202BDED170E70133DD
S214001144DBB294F8782084F87730234483F865205B
S21400115400232370002994D1884661E72378012B65
S21400116409D19DF80730A3F1410119299CBF20330A
S214001174DBB28DF807309DF80710A31801325970BA
S21400118484F878204CE7404602B0BDE8F08100BF02
S214001194DC2300205924002049BA89B24840C0F311
S2140011A403114140080380B24840C3B280EA4310AA
S2140011B470471AF07FBB7047704770477047704798
S2140011C4704770477047704770477047704770475E
S2140011D4002070477047704700207047704770477C
S2140011E4002070477047704770470020704770476C
S2140011F4012070470120704770477047704770475A
S21400120470477047704700002DE9F0470024204DD2
S214001214DFF89C90DFF89CA05FFA84F840461DF047
S21400122403FFFF2806460CD122461A49287803F005
S214001234E5FB287801340AF03BF9142CECD1BDE820
S214001244F087154B47B213EA270338BF534659F8BD
S21400125424201249287803F0D1FB002FE9DA14B1D0
S214001264B8F1030F08D10E4B16F0010F0D4928787C
S21400127418BF194603F0C2FB0A2CDAD10A4B16F043
S214001284010F0A49287818BF194603F0B7FBD0E7C0
S214001294B52000200D2C0300982A0300352C0300EB
S2140012A4D02B0300E62B0300F82B0300022C0300CC
S2140012B47C2B0300597E03008842F0B54FEA920364
S2140012C41AD804460D469BB29E0087190437043488
S2140012D4BC4205F104053AD1C3EB8333314402EB37
S2140012E48303013E304411FA83F3994220D011F867
S2140012F4012B00F8012FF8E7541E204421440D4624
S21400130404469BB2A0EB8306043E043CB442A5F11B
S21400131404050ED16FF003045C43C3EB833302EB86
S214001324830321449BB201342044CB1A994209D149
S214001334F0BD2F792771EF78E770AF78A7706F78D4
S2140013446770E2E711F8012900F8012DEEE715F8B9
S21400135404CC04F804CC15F803CC04F803CC15F834
S21400136402CC04F802CC15F801CC04F801CCAEE7A4
S2140013740244904200D1704700F8011BF9E710B50B
S214001384013801390AB9104606E010F8014F11F881
S214001394013F9C4201D0E01A10BD013A92B2F1E737
S2140013A482B2074B4AB1000C1A8008BF4FF6CE2211
S2140013B4044B14BF18801A8070474BF6EF62F2E7AE
S2140013C44C1D00204E1D0020094B1888020448BFFF
S2140013D480F0620042001A80064A1388190444BF4B
S2140013E483F4805383F00B035900118058407047F0
S2140013F44C1D00204E1D00200022034B1870034B8A
S2140014041970034B1A70704763240020622400206E
S214001414642400202DE9F04F234E85B03378074628
S2140014248846002B3DD04FF6FB73204D98422C780F
S21400143403D952211E4802F089F81E4B4FF0000BC8
S2140014449A4632785FFA8BF94A45187811D9484497
S21400145402A9C0B2019326F0E9FB082241460DEB2F
S2140014640200FFF78CFF0BF1010B019B0028E8D16B
S2140014744C462B78A34207D1631C3278DBB29A42DF
S2140014842B7004BF00232B709AF8003041461C448E
S214001494E4B2204626F0F2FC18B93946204626F077
S2140014A493FB05B0BDE8F08F62240020642400207E
S2140014B42A2D030063240020024B187800F07F00D6
S2140014C4704700BF65240020034B18780130C0B273
S2140014D4187000F07F007047652400201FB5030ACB
S2140014E48DF80E300323009303AB8DF80D0000F047
S2140014F4BFF905B05DF804FB1FB58DF80F10042185
S214001504030A8DF80E30009103AB8DF80D0000F041
S214001514AFF905B05DF804FB2DE9F043994689B0B0
S214001524BDF840509DF84460074688460DF1090012
S21400153411460822BDF84C40FFF7BEFE8DF8125047
S214001544012E4FEA15258DF811908DF813508DF85D
S214001554146017D0032E1CD1082212990DF1150021
S214001564FFF7AAFE9DF850308DF81D301623009321
S214001574BDF8542002AB4146384600F079F909B06C
S214001584BDE8F0838DF81540240A8DF816400F2325
S214001594EDE70120F3E71FB50C46194602238DF844
S2140015A40D2000930A4603AB0146204600F060F97E
S2140015B404B010BD70B586B0044616460DF10D0095
S2140015C408221D46FFF778FE0A232A460093342194
S2140015D403AB20468DF8156000F04AF906B070BDDE
S2140015E430B5002485B0ADF80A20021D92B2012A57
S2140015F41D46ADF80840ADF80610ADF8044003D912
S2140016044FF6FF72904207D1064A2B46127801A97C
S21400161424F04EFC05B030BD014601AA204624F055
S2140016240DFDF7E7501D00202DE9F74F9846FF2AD9
S21400163416BF474B00241B680E4618BF9C5C8146A9
S21400164418BF6408B8F1FF0F16BF414B00271B688C
S21400165415461CBF13F808707F08FFF735FF4FEADE
S21400166419238DF800008DF803600621360A6846B3
S2140016748DF804608DF801908DF802308DF80540E1
S2140016841EF08AFAFF28064604D11824204603B022
S214001694BDE8F08F4FEA440B0BF1070A0AEB47014B
S2140016A4C9B21EF02DFA0028EFD10446A3451BD17B
S2140016B40BF106013A4601F0FE0130465FFA8AF461
S2140016C41EF0E5FA4FF0000A5FFA8AF5AF4223D817
S2140016D43346BDF8302006214846FFF781FF04460E
S2140016E430461EF0FBF8D1E7214628461EF0CAFA1B
S2140016F4A11D0246C9B230461EF0C9FA611CC9B221
S21400170428461EF0BFFAE11D0246C9B2304602342E
S2140017141EF0BDFAE4B2C9E76D00EDB229464046B4
S2140017241EF0B0FA2146024630461EF0B0FA691C96
S214001734C9B240461EF0A6FA611C0246C9B230463B
S21400174402341EF0A4FA0AF1010AE4B2BCE700BFB0
S214001754E81C00202DE9F04188B00F4602A9064691
S2140017640BF07AFC00287CD0FFF7AEFE8DF8100054
S2140017741DF02EFE8DF811001DF02AFE000A8DF8CD
S2140017841200082239490DF11300FFF795FDBDF844
S21400179408300F218DF81C301B0A8DF81D309DF87B
S2140017A40D3004A88DF81B608DF81E301EF0F4F979
S2140017B4FF28044657D04FF000089DF80D305FFA16
S2140017C488F2934208F101081DD801220DF10E019A
S2140017D420461EF023FA4FF000089DF80E305FFAFC
S2140017E488F2934208F1010824D823463A46202179
S2140017F40020FFF7F5FE054620461EF06FF8284643
S21400180408B0BDE8F081002130460BF051FC0546D7
S2140018148DF807000DF10701012220461EF0FEF99F
S2140018242D0A01220DF1070120468DF807501EF0FF
S214001834F5F9C2E7012130460BF03AFC05468DF86F
S21400184407000DF10701012220461EF0E7F92D0AD4
S21400185401220DF1070120468DF807501EF0DEF92F
S214001864BBE7A325CBE71825C9E700BFB94D002081
S214001874F8B51C460E4617460546FFF725FE9DF8A6
S2140018841810207020461EF087F9FF2804460BD057
S21400189403463A4628463146FFF7A2FE054620464A
S2140018A41EF01CF82846F8BD1825FBE708B500F01E
S2140018B4E1F9BDE808400FF055B808B5FFF759F848
S2140018C40FF07AF8BDE8084007F08EB8704700F0CD
S2140018D43BBCFFF788B80020704738B504460D4671
S2140018E4FFF79AF829462046BDE838400AF062BC5D
S2140018F4FFF77BB8FFF785B80122052110460FF0E5
S21400190409BD0422052101200FF004BD0322052190
S21400191401200FF0FFBC0222052101200FF0FABCC3
S2140019240522012011460FF0F5BC062205210120F0
S2140019340FF0F0BC4122052101200FF0EBBC402241
S214001944052101200FF0E6BC4222052101200FF0FC
S214001954E1BC0022052101200FF0DCBC0222062196
S21400196401200FF0D7BC4222062101200FF0D2BC82
S2140019744122062101200FF0CDBC0122062110468B
S2140019840FF0C8BC4022062101200FF0C3BC002281
S214001994062101200FF0BEBC4022032101200FF0D7
S2140019A4B9BC0122032110460FF0B4BC0022032167
S2140019B401200FF0AFBC0222032101200FF0AABCC5
S2140019C40122042110460FF0A5BC04220120114672
S2140019D40FF0A0BC0322042101200FF09BBC0522BB
S2140019E4042101200FF096BC0022042101200FF0F0
S2140019F491BC0022012011460FF08CBC012200216C
S214001A0409200FF087BC0122002110460FF082BC8B
S214001A1413B504462D4901200DF0F8FE042C53D8C6
S214001A24DFE804F0031C2C314100294901200DF0A5
S214001A34EDFE4FF49673032200930521002000F078
S214001A4459FF0123234A1370234A13704FF47A7103
S214001A54224802B0BDE810401DF028BD02221E4BED
S214001A6404211A704FF4967303220093002000F0AA
S214001A7441FF1B4901200DF0C9FEE7E70024194B7E
S214001A8419491C70D2E7194901200DF0BFFE4FF426
S214001A949673032200930521002000F02BFF0222F8
S214001AA40D4B1A70D2E70B4B1B786BB14FF4967341
S214001AB4032200930121002000F01CFF0322064BA2
S214001AC440F6B8311A70C3E702B010BDBB45030038
S214001AD4D0450300702400207124002060400020BC
S214001AE4E345030074400020F54503000A4603005E
S214001AF413B501390446042952D8DFE801F0032857
S214001B04425F6900A0B93F4901200DF07FFE042121
S214001B14204600F0C5FE0121084600F08FFB012296
S214001B2423461146104602B0BDE8104000F0CABB7A
S214001B34354901200DF06AFE0421012000F0B0FEB4
S214001B440121022002B0BDE8104000F077BB78B94E
S214001B542E4901200DF05AFE2146012000F06EFBAE
S214001B64204600F04BFE0121234622460846DAE7CB
S214001B74274901200DF04AFE012000F03FFE002117
S214001B84DFE778B9234901200DF040FE012006F076
S214001B94DDFB0322C82311460093012000F0AAFEB1
S214001BA402B010BD1C4901200DF030FE012006F0E5
S214001BB407FBC823032200930721EEE730B9174931
S214001BC4012002B0BDE810400DF020BE1449F7E72E
S214001BD408B91449F4E7144901200DF017FEC82388
S214001BE4022200930121002000F084FE032240F626
S214001BF4B8310E4B0E481A7002B0BDE810401DF006
S214001C0455BC00BF424503004E4503005A45030039
S214001C1467450300734503007F4503008B450300B7
S214001C2497450300A3450300AF4503007124002035
S214001C34604000200B39042910D8DFE801F00307C0
S214001C44090B0D00064901200DF0E0BD0549FAE731
S214001C540549F8E70549F6E70549F4E7704700BF84
S214001C64154503001E4503002745030030450300C1
S214001C743945030008B5104901200DF0C7FD00F0F2
S214001C84E1FD0E490E4800F0D9FB0E4800F0ECF8D2
S214001C940D481DF0FFFB00F0FFFCF0EE000A9FED80
S214001CA40B1AB0EE600A00F073FCBDE808404FF46F
S214001CB47A7107481DF0FABB1E460300F51A0000A9
S214001CC4391C0000151A0000604000206F12833A89
S214001CD45840002037B500221E4B1F4C1A7023783C
S214001CE4032B13D8DFE803F002141B220BF0E6F8EC
S214001CF4054648B9C82303220093012100F0FAFDE3
S214001D04164805701DF0C6FB0223237003B030BDD1
S214001D140223237003B0BDE8304000F055BA01201A
S214001D240F4903B0BDE830400DF070BD02232370A8
S214001D340BF0C4F840B100F0B5FA19F0A3F903B0FB
S214001D44BDE8304020F042BC03B0BDE8304002F0AD
S214001D545FBA00BF60400020712400207440002059
S214001D6437460300002310B5054C237000F082F8B4
S214001D742046BDE8104042F210711DF097BB00BF2C
S214001D84744000200022164B10B51A7000F0E6FCD2
S214001D94144C154B0146186023681B1A002BB8BF59
S214001DA45B421E2B10DD2060032000F060FA2268E0
S214001DB40E4901200DF02AFD2368B3F5FA7F0AD9EF
S214001DC40221012000F06CFDBDE810404FF47A714A
S214001DD403481DF06BBB012000F010FDF4E700BFC4
S214001DE4584000206C24002068240020FC44030093
S214001DF410B5084901200DF009FD0023064C237098
S214001E04FFF7E2FAC1B249002046BDE810401DF0D3
S214001E144DBB00BF284603006C4000201FB50124BC
S214001E240022104B06211A70204600940DF10F0371
S214001E340CF0F1FA20B99DF80F10204600F0FEF9D8
S214001E4401230022009306210DF10F0302200CF05B
S214001E54E2FA20B99DF80F10022000F0EFF904B062
S214001E6410BD00BF6C400020014B1860704700BFD7
S214001E747424002008B50BF021F830B9BDE80840FA
S214001E844FF4FA6101481DF011BB08BD8C400020D8
S214001E94002208B5054B1A700BF010F828B907F0A5
S214001EA459FD034A13680133136008BD8C400020B3
S214001EB47824002038B505461F4901200DF0A6FCFD
S214001EC4902D15D11D4B1E4C186858B107F082FD95
S214001ED423682BB1022098471A4901200DF096FC7E
S214001EE4002038BD2368002BFAD098471649F4E73B
S214001EF40AF0E4FF044698B9114B1B682BB1042082
S214001F049847124901200DF081FC942DE8D1104920
S214001F1401200DF07BFC0A4B01201B689847DFE785
S214001F240328F2D10B4901200DF070FC044B204627
S214001F341B689847E9E700BF424603007824002060
S214001F44742400205E46030073460300864603009E
S214001F54AE4603009A460300F8B50368C47C0546FB
S214001F64077D5A881D4901205E790DF04FFC8CBB15
S214001F74AA89791C8A422FD3A868C55D0CF095FF00
S214001F842A460346164901200DF040FC012E09D1CD
S214001F944F2D09D9134930460DF038FC022120464E
S214001FA400F07EFC2046F8BD272D05D90E493046A4
S214001FB40DF02CFC3146F2E72DB10C4930460DF0FD
S214001FC425FC0421EBE7304609490DF01FFC2846A2
S214001FD400F014FC0024E5E70124E3E7C046030010
S214001FE4D14603000D470300174703001F470300AD
S214001FF4284703002DE9FF41002507462C464FF6E7
S214002004FF78EEB2304618F03DFE40450DD06946E6
S214002014304618F03FFE9DF80130BB4205D19DF8CE
S2140020240030012B04BF0134E4B20135142DE8D18D
S214002034204604B0BDE8F0812DE9F3410368C57C71
S2140020441F795C79B0F806800646CDE90058234629
S2140020543A46384901200DF0D9FB2DB1012D3FD069
S214002064002002B0BDE8F081334901200DF0CEFB1C
S214002074367976B1022EF3D1304901200DF0C6FB35
S2140020842946284600F00CFC2946012000F008FCEE
S214002094E6E7012C1AD1304600F0B0FB3146204664
S2140020A400F0CCF82046FFF7A5FF25490246204657
S2140020B40DF0ACFB2046FFF79DFF0028D0D043462A
S2140020C432462146384600F0FDF8C9E7022CC7D14F
S2140020D4012000F093FB3146204600F0AFF8BFE73E
S2140020E4184928460DF092FB367946B1022EB7D130
S2140020F4124928460DF08AFB31462846C6E7012CCD
S21400210410D10421304600F0CBFB2046214600F0D7
S21400211495F82046FFF76EFF0028A1D043462246D6
S2140021242146CFE7022C9BD10421284600F0B8FBB9
S2140021342946D1E73147030092470300A947030025
S2140021449F470300B3470300827B08B52AB10368A0
S2140021545B88062B03D0082B04D0002008BDFFF7AD
S2140021646BFFFAE7FFF7F8FEF7E7000030B51C460A
S21400217400230546104691B08DF80D308DF80E30CC
S2140021849DF850308DF80C102246014604A88DF8B0
S2140021940F30043430F0DFFB03AB00930194044BA0
S2140021A40122294610200CF0E1FA11B030BD00BF20
S2140021B47743030008B501210CF05EFBBDE8084038
S2140021C4002108460CF036BB30B501241A4B89B002
S2140021D41868596806AA03C253F8080F8DF80F400A
S2140021E41B7904908DF814300AF068FE022820D17A
S2140021F44225082306AA052100200095FFF7B6FF0E
S2140022042046FFF7D7FF052304AA042100200095E3
S214002214FFF7ACFF2046FFF7CDFF202300200093F6
S2140022240DF10F0223462146FFF7A0FF2046FFF7D5
S214002234C1FF09B030BD00BFBF4703007FB51026FD
S214002244054604AC04F8011D22460123002100962D
S2140022540620FFF78BFF2846FFF7ACFF00962346C1
S2140022640022062128460CF085F804B070BD7FB520
S2140022742326054604AC44F8041D22460423002104
S21400228400964FF48060FFF771FF2846FFF792FF31
S2140022940096234600224FF4806128460CF06AF824
S2140022A404B070BD1FB50223002000934FF48A5279
S2140022B403AB48F234018DF80D00FFF7D9FA05B0E8
S2140022C45DF804FB2DE9F04F8246894615469B4689
S2140022D40026DFF8C48085B0F4B26946204618F0BC
S2140022E4D9FC0746204618F0CDFC044667B99DF88D
S2140022F401204A450BD19DF80430534507D1584573
S21400230405D10136142EE7D105B0BDE8F08F4FF69F
S214002314FF739C42F5D0231D9BB2012BF1D94A458D
S214002324EFD1BDF80270062FEBD1012D19D1184953
S21400233428460DF06BFA43462A46394628460CF0E2
S21400234415FA9DF804109DF801000CF095FA214644
S21400235400200CF06FFA29469DF80100FFF76EFF87
S214002364CFE70C4901200DF051FA434600223946C6
S21400237401200CF0FBF99DF804109DF801000CF008
S2140023847BFA214600200CF055FA0021E4E700BF52
S214002394CC470300E3470300982A0300F8B5234C10
S2140023A4636883422FD0636998422ED10125EDB22B
S2140023B42D0163195F683023625D1D485343002274
S2140023C4164618440368FB4003F001030168F9400D
S2140023D401F0010C63451AD10132052AF6D16219BF
S2140023E482F808C0B3B9537A01335372137B13B916
S2140023F410481DF04FF8002301222C44A372637387
S2140024042273E372F8BD0025D1E7FF25D0E700224A
S2140024146346DBE701230848D372067016734FF44D
S214002424FA71BDE8F8401DF041B800BF541D002005
S21400243414C00340944000209C4000202DE9F7433C
S21400244407460E46012502F087FD104CDFF848903B
S21400245404F12008002301226168207804F0FEFDC0
S2140024644946207902F086FD626814F8100BCDE91F
S21400247400550123114604F0ABFD4445EAD1044B54
S2140024841F60044B1E6003B0BDE8F083541D00209B
S2140024947C24002080240020A12300002DE9F8439A
S2140024A400241A4B4FF005081C704FF00109234610
S2140024B4174D184FEE7826B36B780133DBB2042B36
S2140024C484BF00222A703A686B7088BF85F804902F
S2140024D45AB1B3FBF8F101EB81001B1A13F0FF0F9E
S2140024E403D10A31C9B220469047103534B156B1EB
S2140024F4BDE8F843C82105481CF0D8BF012433467C
S214002504D8E71E46F1E7BDE8F88300BF94400020F4
S2140025145D1D00207C2400202DE9F0410025A846FE
S214002524174B184C184E194F1D70E37AABB133682D
S2140025343BB1627BE8B2B2B9617A0A2928BF11219D
S214002544984784F80A8084F8098084F80C8084F814
S2140025540B8084F8088084F80D8010340DB1BDE833
S214002564F0810125E1E7A17A3B681D299FBF05227A
S214002574B1FBF2F10A31C9B288BF1121E0E700BF0E
S2140025849C400020541D0020802400207C24002031
S214002594044B83ED000A044BC3ED000A034B83EDA2
S2140025A4001A7047884000205440002068400020ED
S2140025B42DE9F8432B4D2C4B2DED048BD3ED007AEF
S2140025C4D5ED008A78EEA77A284C88EEA79AD4ED43
S2140025D4007A30EE670AB0EE678AA9EE008A77EED4
S2140025E4C87AF0EEE77A224B17EE900A83ED009A4B
S2140025F4204B83ED008A2FF057FC1F4B06461868C5
S2140026040F462FF051FC02460B46304639462FF053
S214002614A3FC064619EE100A0F462FF045FC0246A8
S2140026240B46002015492FF0DFFA804618EE900A74
S21400263489462FF039FC02460B46404649462FF0A1
S2140026448BFC02460B46304639462FF0CFFA2FF065
S2140026545BFFB0EE480A84ED008ABDEC048B28606C
S214002664BDE8F883544000208840002084400020C1
S214002674804000207C400020684000200000F03F9E
S21400268407EE900A08B5B8EE670AFFF791FFFCEE6E
S214002694C07A17EE900A08BDF0B52B4E8FB008AD81
S2140026A400240FCE03270FC596E80300012685E80D
S2140026B40300264DCDE903442846CDE90544079496
S2140026C48DF80E708DF808608DF809408DF80A4074
S2140026D48DF80B4004F074FD0221052004F028FA5E
S2140026E4022322461A4928468DF8173004F0DEFDE8
S2140026F423468DF819000090224642F210712846AF
S2140027048DF8237004F0EAFD04238DF82130A52308
S2140027148DF8250008AA05A928468DF809308DF8F5
S2140027240E408DF8086004F0FDFD02AA03A92846B1
S21400273404F006FD074AD2F8283343F48033C2F87F
S21400274428330FB0F0BD00BFFC4703000040004A2A
S21400275440420F0000C003400000000007B50022FE
S2140027641E4B1A7001221E4BDA605A6902F4A072DC
S214002774B2F5807FF9D11A49684604F029FF00981B
S214002784184B1860FFF77CFF174B184A1860184B55
S21400279403FB0023B3FBF0F0164B186018682FF009
S2140027A461FB9FED0A1B41EC100B2CF03FFE09A3C6
S2140027B4D3E9002351EC100B2FF0CEFB2FF07CFE58
S2140027C40D4B1860186803B05DF804FB6666666611
S2140027D46666F6BF00000000D8227E41A8400020AE
S2140027E40040004A8C24002084240020408AF701FC
S2140027F4F0D8FFFFA4400020882400204823584334
S21400280401230E4970B530250A18085C51680C4C33
S21400281403FA01F641F2100105FB00404650107E13
S214002824D66905FB004003FA06F6465092F83000D7
S214002834526B934005FB0042535070BD741D00203C
S21400284400C0034070B5124D00242E462919285D99
S214002854002304224968183404F000FC482CF5D1FF
S21400286400243019C16C0023042290F84800183460
S21400287404F0F4FB482CF4D10020FFF7BFFF01203E
S214002884FFF7BCFF034B044A1A60044A5A6070BD43
S214002894741D0020F0400020E8400020B0400020D6
S2140028A44823124A2DE9F04103FB002001270022A9
S2140028B4302641F2100C42F2100E0D4D0378446897
S2140028C406FB035341FA02F818F0010F07FA04F462
S2140028D402F1010214BF43F80E4043F80C40032AE9
S2140028E400F11800EAD1BDE8F08100BF741D002095
S2140028F400C0034030B41824084D04FB00540125DE
S214002904E360029BAA402361054B2275257261721F
S21400291453F8200030BC1CF0BDBD00BFB8400020FA
S214002924F040002018222DE9F047404D044602FBF3
S2140029340052137D3E49002B59D013F0010F4FF07F
S214002944480332D003FB00134FF0010E002130275A
S21400295441F2100842F2100992F809C0354E1A786E
S214002964586807FB02624CFA01FA1AF0010F0EFAD5
S21400297400F001F1010114BF42F8090042F8080012
S214002984032903F11803EAD1182303FB0453D96877
S214002994294B53F824001CF089FD182303FB045428
S2140029A4237D013B2375BDE8F0874343C818CE5CFE
S2140029B401234FF0300C41681E4F03FA01FE41F22A
S2140029C410010CFB067646F801E090F818E0C6699C
S2140029D40CFB0E7E03FA06F64EF8016090F83060A3
S2140029E4406B83400CFB067043501169D0E71372AA
S2140029F448235C43012330250A19085D51680D4CB1
S214002A0403FA01F641F2100105FB00404650107E21
S214002A14D66905FB004003FA06F6465092F83000E5
S214002A24526B934005FB00425350BCE7B84000206D
S214002A34741D002000C00340F04000200020044B1A
S214002A441870044B1B7A012B01D1FFF76BBF70473C
S214002A54E8400020B84000200022054B1A70054BC1
S214002A6493F82000012801D1FFF75CBF704700BF30
S214002A74B0400020B840002007B50123082269466C
S214002A840020FEF7E3F84FF6FD71684600F0CAF83A
S214002A94FF28024606D1064901200CF0B7FE03B013
S214002AA45DF804FB034901200CF0B0FEF7E700BF15
S214002AB4144803003048030007B50123082269467A
S214002AC40020FEF7C3F8684600F010F930B9044950
S214002AD401200CF09BFE03B05DF804FB0149F7E708
S214002AE493480300A148030007B50123082269465A
S214002AF40020FEF7ABF8684600F076F8FF2802469A
S214002B0406D1064901200CF081FE03B05DF804FBF3
S214002B14034901200CF07AFEF7E700BF4D48030096
S214002B245D4803002DE9F74300261C4902200CF0FB
S214002B346DFE34464FF6FF77DFF86880DFF868905E
S214002B440AF0B8FBF5B2A8420AD80AF0B3FB22464C
S214002B540346134902200CF059FE03B0BDE8F08387
S214002B64284625F07BF8B842034615D02A46414647
S214002B7402200CF067FE28466946013425F056F814
S214002B840220E4B20CF02EFE10B168460CF0B0FD44
S214002B94494602200CF03AFE0136D1E77A48030093
S214002BA48468030088480300982A030037B5002089
S214002BB4FEF712F804460220FEF70EF805466946AC
S214002BC4E4B20120FEF765F8AAB26946204600F092
S214002BD45BF822460346034902200CF017FE03B0B6
S214002BE430BD00BFB6480300F7B5064698B10025C9
S214002BF44FF6FF77ECB2204625F030F8B84209D0FD
S214002C046946204625F012F8082269463046FEF743
S214002C14B6FB08B11DB1FF24204603B0F0BD012564
S214002C24E8E700002DE9F34106460F4600254FF677
S214002C34FF78ECB2204625F011F8404511D06946DD
S214002C44204624F0F3FF082269463046FEF797FB39
S214002C5458B125B1FF24204602B0BDE8F081012515
S214002C64E7E73146204625F009F94FF6FD739F4203
S214002C7403D03946204624F0A7FF024A535D0133A9
S214002C845355E8E7902400200128F8B50546174672
S214002C9412D80B4E325C8AB925F0F0F8044638B9DF
S214002CA44FF6FD739F4203D03946284624F08CFF26
S214002CB4012373552046F8BD6A24FBE77624F9E71A
S214002CC490240020012810B50CD8074B1A5C0AB1D2
S214002CD4013A1A541C5C1CB94FF6FF7124F074FFB9
S214002CE4002000E06A2010BD9024002008B5FFF7FD
S214002CF47BFFBDE80840FFF7E5BF002307B5CDE935
S214002D040033012369464FF0FF308DF8023010F08F
S214002D142BFA003018BF012003B05DF804FB012035
S214002D2470470120704701207047000010B5084C1A
S214002D3423681B6858790BF00CF823681B685879CD
S214002D44FDF71DFE00200DF0CBFF012010BD00BFD7
S214002D54184C00202DE9F84F80460D461446994637
S214002D64164E06F1010A0DB9BDE8F88F102D4FF086
S214002D740D02494650462F4628BF1027FEF79CFAF8
S214002D840123337000230D48F473B37325F00EF952
S214002D94424601340A495FFA87FBE4B212F8013B63
S214002DA411F8010F434002F8013CA2EB0803DBB222
S214002DB45B45F3D3ED1BADB29046D4E796240020D2
S214002DC4952400202DE9F04F4FF00209364D85B0CA
S214002DD403930F9B174601900D220E460146681C6E
S214002DE4BDF838800293FEF767FA49234C46AA4694
S214002DF42B7028464FEA1823AB7385F80F8025F00E
S214002E04D5F82B7883EA17232B706B787B406B708E
S214002E144FF0000B21E0C4F1100CA7EB0B031FFAD4
S214002E248CFC9BB2634528BF63463046A11B00EB6F
S214002E34010C5FFA8CF2A0EB060C1FFA8CFC9C4586
S214002E441BD31C44E4B29B44102C1E441FFA8BFB79
S214002E5403D1284625F0AAF80024BB45DBD314B1D9
S214002E64504625F0A3F8B9F1010F4FF00004039E75
S214002E7447460BD04FF00109CAE710F801CB1AF801
S214002E8402E08CEA0E0C0AF802C0D0E7029804228C
S214002E940549FEF711FA22460421019B029805B063
S214002EA4BDE8F04FFFF756BF96240020F7B5099FFC
S214002EB4BDF820400646CDE900471D46FFF782FFD1
S214002EC42CB13346012221462846FFF743FF002053
S214002ED403B0F0BD2DE9F7431E46054688469146E5
S214002EE4BDF828700D4C0346394630460122FFF7DC
S214002EF431FF33464A4641462846CDE90074FFF77B
S214002F0461FF042221460B98FEF739FA002814BF05
S214002F147E20002003B0BDE8F08300BF922400208A
S214002F242DE9F3410C4615461E468046084F99186F
S214002F34214438460422FEF7BFF9CDE90067631939
S214002F442A4621464046FFF7C5FF02B0BDE8F08199
S214002F54A624002000207047002070477047704762
S214002F64F7B50024094E0A4F0A4D56F8243003B923
S214002F743B6835F8142008490092012022460134A3
S214002F840CF044FC292CF0D103B0F0BD041E002044
S214002F94AC1E00206C410020CB48030008B5FFF7A8
S214002FA4DFFFBDE8084000F0F1B8000007B50020D8
S214002FB4FDF712FEC2B2282A0DD8084B53F8223069
S214002FC40BB9074B1B680749012031F81210009112
S214002FD405490CF01BFC03B05DF804FB041E00203E
S214002FE4AC1E00206C410020CB480300FFF7B8BF9E
S214002FF47047000038B50020FDF7EEFD04460120BA
S214003004FDF7EAFD0546054901200CF0FFFBA9B2D1
S214003014E0B2BDE8384000F0D1B800BFD64803009F
S214003024F7B50024094E0A4F0A4D56F8243003B962
S2140030343B6835F8142008490092012022460134E2
S2140030440CF0E4FB292CF0D103B0F0BD041E0020E4
S214003054AC1E00201A410020CB48030073B502AB17
S21400306403E906000446019D1BF0CEFE06462046F4
S2140030741BF0D8FE9DF800008EB1202C0FD82B78BC
S214003084012B37D84FF6FF75394903EB4313234416
S21400309431F81320AA4202D0013221F813204FF649
S2140030A4FF72344B344933F8146031F814509642A6
S2140030B41CBF721C23F8142004F0FD02092A31D127
S2140030C49A8A898A02448A42B4BF9A82998233F8D9
S2140030D41430AB4204D3AE4202D22046FDF750FC75
S2140030E40025264BEA5CA24228D00135112DF9D1E1
S2140030F402B070BD022BD2D14FF6FF714FF6FF75AA
S2140031041B4B33F814208A421CBF013223F81420C8
S21400311404F1210233F81210A9421CBF013123F82E
S2140031241210BCE71D2CD2D15A8F1118A942BDBF6C
S21400313402F1FF3212185A875D87C8E718F073F851
S2140031440F4B04461B78834203D8DD210D4800F05C
S214003154FDF94FF6FF710C4A04EB04142C4432F8C4
S21400316414308B42C4D0013322F81430C0E700BFB9
S214003174BE4100206C4100201A410020424C03004E
S214003184311D0020BE4B0300F840002052220021CF
S2140031940148FEF7EDB800BF6C4100205222FF2123
S2140031A40148FEF7E5B800BF1A41002008B5FFF74E
S2140031B4EDFFBDE80840FFF7F1BF0000014B23F820
S2140031C4101070471A410020032310B50F4C4FF41B
S2140031D48062C4E904330E4B0E49E3610023A16107
S2140031E421660D49E01DC4E919120C49A362636205
S2140031F4E3622367E366636722622FF0BFFB084936
S21400320420462FF0BBFB2023A37110BD44420020B0
S214003214AA280020534C0300AA2400205C4C030078
S214003224604C03002DE9F84F1F4B16461A7881466A
S2140032348A4698460AB9FFF7C7FF182707FB098787
S2140032443D6FD7F86CB05D452BD9BC6E796E641BA8
S214003254B44228BF34462944504622462FF07BFB0E
S214003264BB6E2544AB4208BF0025A244361BABEB1D
S214003274050B5E4528BF5E4656B1182303FB09833B
S214003284596E3246294450462FF065FB3444354483
S21400329424B1182303FB0988C8F870502046BDE8FB
S2140032A4F88F0024E3E700BF4442002010B50B4625
S2140032B4EFF311844FF0200181F311881946FFF7CC
S2140032C4B1FF84F3118810BD2DE9F84F144D9B46C9
S2140032D42B788146884692460BB9FFF775FFEFF3C5
S2140032E4118C4FF0200181F31188002018236F6998
S2140032F403FB0054666E2EB101308742F8DC4FF0B3
S214003304FF3009E08742FADDC4E91898C4F868A0DB
S2140033142667E666C4F874B08CF31188BDE8F88FA7
S21400332444420020FFF750BF70B54FF060441A4B7C
S21400333400261A68194D42F001021A60DA680C2059
S21400334442F08072DA60164BC4F8B03F0223C4F829
S214003354006EC4F8806EC5F8F03003F0ABFA114B7B
S21400336400F5D52000F2FC40B0FBF3F00E4A0F4BFC
S21400337401382861C4F8406E1A600D4BC4F8803ECC
S2140033844FF48073C5F80433D4F8003E43F48073D6
S214003394C4F8003E70BD00BFF0ED00E0000004E09D
S2140033A455CEACC5F8590D00FF030040001000E0F0
S2140033B40D00010010B501240E4B00201C6003F024
S2140033C405FE234604220321002003F047FE204680
S2140033D40FF0DAFBFFF7A8FF0FF0D7FBFFF7A2FF0B
S2140033E42346402204490548FFF76EFF044B186045
S2140033F4C00F10BD44D40340AA2C0020674C030021
S214003404B01E0020024B1868003018BF0120704719
S214003414F0ED00E0D123054A037013784170090AE1
S2140034248170591CC370117004207047EA2C002068
S2140034342DE9F74F354E074633681C5C032C63D9D9
S214003444DFF8CC8017F000FB4FF6FF7A0025C14664
S2140034540534E4B20190D8F800204AB1AC4207D94A
S21400346417F0F2FA019BC01A80B2B0F5FA7F05D9BC
S214003474601B18BF012003B0BDE8F08F002D3DD0BF
S214003484012D1DD14FF0020B3268D55D4FF060421E
S214003494D2F8801ECB0711D51146D9F80C0040F09F
S2140034A48070C9F80C00D1F8000E40F48070C1F8A2
S2140034B4000E086A0028F0D082F820505D46CAE75D
S2140034C4E21E05F1010B95425FFA8BFB02D15FFA0F
S2140034D48AF5DBE7A21E954202D1CAF30725D5E793
S2140034E4621E95420ED0A91EC9B238461CF0CAFB0D
S2140034F451460546FDF750FE8246C7E75B254FF06A
S214003504010BC3E75D25C1E70120B4E7E81C0020F2
S214003514F0ED00E010B50B4B90B0402269461868F9
S214003524FFF7C4FE58B1C1B268461CF035FB04462A
S214003534014612200EF0D4FF20461CF0CFF910B03E
S21400354410BD00BFB01E002042DE704738B50446EA
S2140035540D4600F001FD03F094FC294620460EF0CB
S2140035648BFF2B4622460549012007F0A7FF294674
S2140035742046BDE83840FFF7E7BF00BF774C03009E
S2140035846D4B2DE9F0415A686C4CA2655A6AE265A7
S2140035946B4AD2F800122166D2F8042262669A6A4E
S2140035A4A266DA6AE2661A6B22675A6B6267A26BD5
S2140035B4DB6B12F0040FA367D4E90F5318BF1D4644
S2140035C417F026FA002285420346606522655DD31D
S2140035D45C4A95425AD8AA696264E969A164B4F857
S2140035E45810C1F30801062954D157498A4251D3C9
S2140035F456498A424ED211884DF64262914249D1CA
S21400360440F201706268C4F89420A268C4F8982056
S2140036144F4A5049934238BF13460A468B423CD31E
S214003624D31AE3640023C4E91F33C4E92133C4E98D
S2140036342333484E444FDFF814C1AE4233D8D4E99E
S2140036441FC7D4E92165D4E923124FF0000E013BCD
S214003654DBB2FF2B42D1BEF1000F05D0C4E91FC771
S214003664C4E92165C4E92312B4F85830C3F3080347
S214003674052B57D03CD8032B47D0042B58D040F604
S2140036840722013B4B2B98BF104640E000221D4604
S214003694C4E911224FF42060BAE71E68B6F1CD3FA4
S2140036A4BED10433BAE756F8042DBA42C5D36245F0
S2140036B4C3D2D107C1D5002104EB010EDEF87CE0AD
S2140036C49645BAD004311829F6D10BB9052301E082
S2140036D4013BDBB204EB8301CA67AEE7E0464FF07A
S2140036E4010EBC4637462E460D4611464246AEE708
S2140036F40C2B1AD03B2B0CD0062BC0D140F604233F
S214003704B0F5206F08BF184601E040F60120BDE87A
S214003714F081114B9B6913F0020F40F2025318BF5D
S2140037241846F4E740F60320F1E740F60520EEE7F6
S21400373440F60220EBE700BF00ED00E000000020AA
S21400374400E100E0C01A00204C030000B829030082
S2140037549C000020E01A00200080014A10B504F006
S2140037642FF8044604F024F80022012101FA02F39B
S214003774234014D01B4B33F812301B4A062B13D0AD
S21400378440F207218B420DD1184919480C6884422F
S21400379408D14CF23C334B800B88138012E0013284
S2140037A4102AE3D1104AF8E74FF20F010F4B58885E
S2140037B4884214D11988B1F5406F10D211804CF2AA
S2140037C43C325A80084B1A8840F201739A4201BF71
S2140037D4084B094AD2E90001C3E9000110BD4FF4C1
S2140037E4C061EBE78A4C0300F42C002000000020A4
S2140037F407020FF0EC2C002094000020014B1888E0
S214003804000A7047F42C0020014B1888704700BF4C
S214003814F42C00202DE9F04F4D4C0546A36BD4F84C
S21400382450B05A0747BF0027B846D4F84CB0D4F86F
S2140038345480D4F840A05DBF464FD4F83CA0DFF8CF
S2140038443C91DFF83C9113F0080F434B434A18BFF2
S2140038541A46B7EB08061FBF6421730801FB0B3337
S214003864B3FBF6F387B01CBF9BB205933C494B46AB
S214003874CDE9017ACDF8008008BF059601F0BEF8C0
S214003884B3B2CDE900931FFA8BF2059B354928465F
S21400389401F0B4F8A36B5B070AD49C3E5E4507D1DF
S2140038A4626D314B9A4203D23049284601F0A6F89D
S2140038B4BA4501D8C24504D24A462D49284601F0E5
S2140038C49DF8284607F0F4FD236E0BB9636EBBB370
S2140038D42849284601F07DF800260127DFF8A48051
S2140038E4DFF8A490226E07FA06F3134207D058F8BE
S2140038F4262013781BB14946284601F06AF801369B
S214003904202EEFD100260127DFF87880DFF87890A4
S214003914626E07FA06F3134209D008EB8603D3F85F
S214003924802013781BB14946284601F052F8013628
S2140039341D2EEDD1284607B0BDE8F04F01F058B86B
S21400394428460D4907B0BDE8F04F01F057B800BF50
S21400395400000020E01A0020934F03009A4F030053
S214003964A24F0300D04F03009C0000200950030020
S2140039743550030053500300825003008E4F03005B
S214003984446C0300985003008C6A03002DE9F84346
S2140039940446FFF739FF40F60123984239D010D881
S2140039A440F2025398421DD040F20173984224D04C
S2140039B440F20153984213D16549204601F01EF89F
S2140039C422E040F6032398426CD03DD340F604230D
S2140039D4984200F09C8040F60523984200F0B5809B
S2140039E4BDE8F8835B49204601F008F85A4B5B496A
S2140039F45A6C204601F002F806E0574A5849D2E9C4
S214003A042523204600F0FAFF2046BDE8F84307F0D9
S214003A144FBD514D5349204600F0F0FF95F86C30E9
S214003A249F0703D55049204600F0E8FF95F86F300D
S214003A345E0603D54D49204600F0E0FF95F96F3049
S214003A44002BE1DA4A49B8E7434D4A49204600F0DC
S214003A54D5FF95F86830980704D06A6C3F4920462D
S214003A6400F0CCFF95F96830002B04DA6A6F4249FF
S214003A74204600F0C3FF00260127DFF80881DFF8A0
S214003A841491AA6E07FA06F3134207D058F82620B4
S214003A9413781BB14946204600F0B0FF0136082EC5
S214003AA4EFD1B1E72C4D3549204600F0A7FF2B494E
S214003AB46A6C204600F0A2FF95F86930590703D5D2
S214003AC42F49204600F09AFF95F96930002B04DA56
S214003AD46A6F2949204600F091FF0826294FDFF82F
S214003AE4B480AB6EF340DA0707D557F82620137870
S214003AF41BB14146204600F081FF0136102EF0D15E
S214003B0495F86830002B7FF47FAF1F4955E7124DB8
S214003B141E49204600F072FF6A6C1049204600F0E9
S214003B246DFF1026174FDFF86C80AB6EF340DB0793
S214003B3407D557F8262013781BB14146204600F0D7
S214003B445DFF01361A2EF0D15EE711494BE700BF40
S214003B541D4D03005A4D0300000000208A4D03004B
S214003B64A34D0300BD4D0300D54D03000F4E0300C7
S214003B74424E03007E4E0300A34E0300C74E0300CE
S214003B84DE4E0300AC4C0300244F0300544F0300E6
S214003B946D4F0300BF4E03002DE9F84F064600257F
S214003BA4154C164FDFF85C80DFF85CA023785FFACC
S214003BB485FB0BB9BDE8F88F57F8043B224610493D
S214003BC4304600F006FF227804F1010982B96278D3
S214003BD482B10BF0030103290CBF4146514630461F
S214003BE400F0F7FE304607F063FC01354C46DDE78F
S214003BF44C46E8E74146F2E78C51030004000020F7
S214003C04144D0300962A0300B070030000F00CB8AD
S214003C1400F00AB800F008B800F006B800F004B8DF
S214003C2400F002B800F000B872B61EF0080F09D013
S214003C341EF0040F0DD0DFF850E0AEE8FF1F6FF063
S214003C4402000CE0DFF840E0AEE8FF1F6FF00E0065
S214003C5405E0DFF834E0AEE8FF1F6FF006006946C3
S214003C64EFF309828EE8070086460848084C854527
S214003C7401D3A54501D384F30888FFF781FC84F3B8
S214003C84088816F0A1FE000004000020C0110020E1
S214003C94E01A0020FFF7C6BF7047704770477047AA
S214003CA400F07E63B3F17E6F70B505460E4614468B
S214003CB416D105F08FFA18B19A210D48FFF746FC85
S214003CC422463146C5F30B0003F036FE044605F0E3
S214003CD48DFA5CB19D21BDE870400548FFF736BCFF
S214003CE4520816F00FFE08B18F21F4E770BD00BF2E
S214003CF4B058030037B57F2A14BF154600254BF28B
S214003D0434629142044619D17F2241F20201684688
S214003D140823FFF7EFFF082225496846FDF72FFB27
S214003D2430B908237F2241F2F0116846FFF7E2FF1C
S214003D34082269462046FDF7BFFA09E041F2F01270
S214003D4491421AD11B4901388A6CC96C1D1F0BB9E4
S214003D5403B030BD013B9D4200F8012F4FEA12220A
S214003D64F5D1002203349A42F2D00132042A04F830
S214003D74011F4FEA1121F6D1EAE701F47042B2F5C9
S214003D84805F07D1C1F30B0404F17E649AB203FB8F
S214003D940541D0E701F46042B2F5005FD8D1C1F323
S214003DA40B0405499AB2214403FB0511C3E700BF7F
S214003DB42A5903000080E00F00E0070070B50546AE
S214003DC416461C46DBB14BF23463994210D1082CDC
S214003DD428BF08247F2241F202012346FFF78AFF08
S214003DE4A2B207492846FDF7CAFA40B941F2F011D3
S214003DF4234632462846BDE87040FFF77BBF70BDB9
S214003E042A5903002DE9F7430446E0070F461546F2
S214003E1403D5DD213448FFF799FBE90703D5DE21F6
S214003E243148FFF793FB04F47043B3F5805F3ED14B
S214003E34C4F30B0404F17E646B1E2C4A23449342A1
S214003E44264603D9E3212848FFF780FBDFF898903D
S214003E5406EB050846453DD1A2070ED04FF6FF7384
S214003E6437F8022B02A943EA0243A01E41F8043D98
S214003E740422FFF715FF0234023DAB070ED0023DC5
S214003E8425F00103FB5A02A96FEA03436FEA1343C2
S214003E94042241F8043D6019FFF702FF25B12A46C3
S214003EA439462046FFF7FCFE03B0BDE8F08304F471
S214003EB46043B3F5005F05D10D4BC4F30B041C44FB
S214003EC42646C3E7EA210848FFF740FB6FF00F06D3
S214003ED40024BBE716F8013BFF2BBBD0F421484671
S214003EE4FFF734FBB6E700BFB0580300FF1FE00F30
S214003EF400E00700FFF78ABE1FB5144A01AB10683E
S214003F045168128903C31A8001238DF804300D23E7
S214003F148DF80A3003230E4C082123208DF80B302D
S214003F2402F006FE01A9204603F03DFF4FF40061AF
S214003F34022342F21800074AC2F884112350516043
S214003F4441F21C02A35004B010BD00BF3259030056
S214003F540080014A00E100E0014803F013BF00BFFF
S214003F640080014AA52803D10021024803F0FBBEC5
S214003F74704700BF0080014A024B586800F00100F9
S214003F84704700BF0080014A024A536A002BFCD1E6
S214003F94704700BF0080014A002070470020704729
S214003FA47047000007B572B602F06BFF894B8A496A
S214003FB45B6940228B6000230B764B768B76F0236E
S214003FC4CB760B774B778B77CA77802281F82020C5
S214003FD481F82130E023602081F822307F4B81F87D
S214003FE4232083F8002383F8012383F8022383F82D
S214003FF4032383F8042383F8052383F8062383F82E
S214004004072383F8082383F8092383F80A2383F80D
S2140040140B2383F80C2383F80D2383F80E2383F8ED
S2140040240F2383F8102383F8112383F8122383F8CD
S214004034132383F8142383F8152383F8162383F8AD
S214004044172383F8182383F8192383F81A2383F88D
S2140040541B2383F81C2383F81D2383F81E2383F86D
S2140040641F2383F8202383F82103202083F82223A8
S21400407483F8232383F8242383F8252383F826232D
S21400408483F8272383F8282383F8292383F82A230D
S21400409483F82B0383F82C0383F82D2383F82E232D
S2140040A483F82F2383F8302383F8312383F83223CD
S2140040B483F8332383F8342383F8352383F83623AD
S2140040C483F8372383F8382383F8392383F83A238D
S2140040D483F83B2383F83C23CB6823F4E0631B0478
S2140040E41B0C43F0BF6343F40133CB604B6943F0CE
S2140040F410034B614FF4E0234B6204F021FCFFF7FE
S2140041042DFBEFF308834FF0CD31354A043B934241
S2140041145DD2344A002192B23348FDF729F962B6DB
S214004124684603F031FC314B9B6DDB0318D4304AF0
S214004134136823F4FF0323F4FE4343F4BC1343F44D
S214004144A063136052F8043C23F4704343F44043E2
S21400415442F8043C52F8043C43F4E06342F8043C5E
S2140041649DF80130012B0FD19DF8003063B94FF054
S21400417400531B681F4B1B681F4B1B681F4B1B6899
S2140041841F4B1B681F4B1B681F4AD2F8803043F036
S2140041940303C2F8803002224FF040231A6704F06B
S2140041A449FB01F0E5FA002300938DF8043001235F
S2140041B468468DF8033002F000FF00F027F916F089
S2140041C455FC12480EF0EAFC03B05DF804FB1960D7
S2140041D4043B9CE75400000000ED00E000E100E032
S2140041E480110020BC100000A000002000C0004089
S2140041F434C00040004000200080002000C00020A2
S2140042040000012000400120008000401C860300BE
S21400421440F2016016F0D8BBFEF7A0BE08B5002138
S2140042240B20FEF799FEBDE80840FEF798BE032073
S21400423400F078BA08B5FFF7E1FA044B0B289ABFEA
S21400424400B203EB8000184608BD00BF825A030084
S21400425408B5FFF7D9FA044BC0F30F2253F82230FF
S214004264C0B203EB800008BD4C5A030010B5FFF73C
S214004274C5FA0446FFF7C8FAC0B228B9012C24D1FF
S21400428464F07F04E4B216E0072CF9D801A353F8CF
S21400429424F000BFBB42000085420000B942000083
S2140042A4BF420000BF420000C3420000C7420000F5
S2140042B4CB4200000924204610BD0224FBE7032459
S2140042C4F9E70B24F7E70624F5E70446F3E700BF0F
S2140042D407282DE9F84F04460F462DD0082808BFB6
S2140042E4022421460120FCF798FBFFF745FE651ED5
S2140042F4D5F1000848EB050800B3012C1ED1A52013
S214004304FFF730FE2646EFF31089012383F3108867
S214004314EFF3118A4FF0000B8BF31188354D4046AE
S21400432407F034FB631EC5F800B0042B59D8DFE849
S21400433403F00E4D4D5155000324D2E7FFF71CFE43
S21400434418B1FFF721FE0026DDE70646DBE72A4A1A
S214004354136923F00403136130BF284AD2F82434C7
S214004364D2F8202413409BB2254A2B60D2F80011C1
S214004374480102D51168490106D4D2F80011880113
S21400438405D51268910102D543F480332B601C4B8B
S214004394D3F80021520506D51B685B0542BF2B687F
S2140043A443F400332B601EB10121164803F0DBFCF6
S2140043B4404607F00BFBCFB18AF3118889F31088C7
S2140043C42146BDE8F84F0020FCF727BB012002F089
S2140043D4C7FDC2E7012002F0D7FDBEE702F0D6FD16
S2140043E4BBE788210848FFF7B1F8B6E787F31088DB
S2140043F4E6E700BF002D002000ED00E000C003400B
S21400440400E100E00080014AB25A030042F2204173
S214004414044AD2F820341B0C1B045350024A13607F
S214004424704700BF00C00340FC2C00200021FFF7AB
S2140044344FBFFFF7FBBF00002DE9F04F89B00EF029
S214004444A1FB0746002840F0DD806F4E6F4D3168B3
S214004454286815F0A3FC0446002827D033683C4699
S214004464D3E900019A6912689047336804A89B69E7
S2140044749B689847336802209B69DB6898473268D4
S21400448405985368E7B2B3FBF0F3BB42916904F1B5
S214004494010442D8CB680020984733689B695B6860
S2140044A498473168286815F079FC04460026DFF83A
S2140044B48891002C53D1564B4FEA8608F35C002BA8
S2140044C431D1A246534BF35C0193534B03EB080BD9
S2140044D4019B5FFA8AF7BB42286853D84F4BF35CBC
S2140044E4002B3CD04C4B019F9844FBB27E2B286893
S2140044F435D8D8F8003003AA07EB030A514602ABB6
S21400450415F086FE48452AD05146286815F0C6FEA2
S214004514013704460028E8D021E012680B6907FB3F
S21400452400209847ABE73C4B03AA53F8267028684C
S21400453402AB394615F06CFE484507D078B9039BA4
S214004544012B0CD03946286815F0A8FE344B3946A2
S21400455453F8083028681A6815F084FD04460136B6
S214004564272EA6D1B4FA84F32E4A5B0913702E4B79
S2140045749C4241D02DD8002C32D0013B9C423FD0E7
S214004584C5242DE0DBF8003003AA1F44394602ABED
S21400459415F03EFE48450AD010B10AF1010A97E725
S2140045A4039B8BB9214B029AF35C9A42F5D01F4BBE
S2140045B41B4A9B5D52F808203946286815F0C4FC4F
S2140045C40028EAD0044689E73946286815F066FECE
S2140045D4EDE7174B9C4211D004339C42D0D1C12442
S2140045E42B681B7C23B14FF489711248FEF7AEFF8B
S2140045F4204609B0BDE8F08FC324F1E7C424EFE7F2
S214004604C224EDE7C624F3E7001F0020FC1E0020AA
S214004614D03003000C30030020310300F7300300D1
S21400462434300300042D002002E000F0BC31030007
S21400463404E000F02E5B03000BE000F0262970B5C2
S21400464406460C4615461AD8144A127822B3144A5B
S2140046541068144A52F82110134A125D3AB13246D1
S21400466415F04EFDC0B1BDE87040FCF7A4BD7F2D2B
S21400467408BF00253246294415F0B0FCF2E7FF29AE
S21400468403D9BDE87040FFF799BB40F24511BDE879
S21400469470400648FEF75ABF70BD00BF042D0020C8
S2140046A4FC1E002020310300D03003002E5B0300E4
S2140046B42628F8B504460D46164619D8144909782E
S2140046C429B31449144F0868144951F824103C5D62
S2140046D43CB1126815F0C6FCC8B1BDE8F840FCF75A
S2140046E46ABD7F2D08BF0025294415F02DFCF3E78D
S2140046F4FF2805D91A463146BDE8F840FFF782BBC5
S2140047044FF4BC71BDE8F8400548FEF71FBFF8BD7E
S214004714042D0020FC1E0020D030030020310300AE
S2140047242E5B030008B5084B1B7863B1074B0022C9
S21400473453F82010064B186815F022FD18B1BDE892
S2140047440840FCF738BD08BD042D002020310300C6
S214004754FC1E002070B5164685180AB9304470BD94
S21400476401F00F030A2B34BF30243724013A2344C4
S214004774090905F8013DD2B2EFE70000F0B5F9B13A
S21400478400281CDA2D23B0F1004F137000D04042ED
S214004794012115E0801B8642ECB205F10105F9D92A
S2140047A404B927B101274D1C30345454E9B20133FF
S2140047B4092B09D1303050540131C8B2F0BD002164
S2140047C400231F46DFF808C05CF823600025E2E7F4
S2140047D4A45B03002DE9F04F4FF0000B95B002AC3C
S2140047E481468A4617461D465E46A0463B7863B910
S2140047F402ABE41AE4B2224619465046C8470028DB
S21400480440F093803444E0B290E0252B13D0BBF103
S214004814000F14D12370013412AB9C426DD3A4EB69
S2140048240804E4B2224641465046C84700287CD1D4
S2140048342644F6B260E0BBF1000F00D101373B78A6
S214004844632B00F092801BD8392B09D8302B80F0CC
S2140048549E80002BCCD0252B51D04FF0000BDBE7ED
S214004864582B00F08B80622BF7D14FF0000B2B688F
S21400487401936B680093009B9B4543D10835ECE796
S214004884702B1ED017D8642B01D06C2BE5D16C2B63
S21400489405F1040B28686CD17B78752B14BF0121B5
S2140048A4002101D0642B00D101372246FFF766FFB2
S2140048B404445D46D1E7752BE9D0782B5ED0732B84
S2140048C4CBD1A4EB0804E4B2224602A9504605F173
S2140048D4040B2D68C84740BB2644F6B2C4B22B5D11
S2140048E40130002BFAD1224629465046C847E0B983
S2140048F45D4683462644F6B24446013776E723707F
S2140049040134AAE7019B204613F80B100222FFF796
S21400491421FF12AB984204460ED3A0EB0804E4B27F
S214004924224641465046C84718B1002015B0BDE897
S214004934F08F26444446F6B2009B013B5B4582BF9B
S21400494420232370013412AB9C420BD3A4EB08043F
S214004954E4B2224641465046C8470028E5D12644DC
S2140049644446F6B20BF1010B85E72B680435237039
S214004974C6E7752B0CBF0021012196E720460222CC
S2140049842978FFF7E7FE05F1040B044691E77A78E9
S21400499402F0DF02582A19D1322B07F1010B09D194
S2140049A40422204629882F1DFFF7D4FE3D460446E0
S2140049B45F4652E7342B09D12F1D2D680422290C9B
S2140049C42046FFF7C7FE0422A9B2EDE74FF0010B1D
S2140049D422E70EB403B503AA52F8041B019207F0AB
S2140049E48BF8C0B202B05DF804EB03B07047000069
S2140049F40149FFF7EEBF00BF962A03000EB433B595
S214004A0405AA52F8041B0546019207F075F80446F9
S214004A142846FFF7EDFFE0B202B0BDE8304003B031
S214004A24704708B507F068F8C0B208BD2DE9F04F26
S214004A349B46584B85B01B78064689461546109FFC
S214004A449DF844A0DDF85080002B00F09280072AE1
S214004A5400F291800E9B002B00F08D800F9B002BA4
S214004A6400F08980129BB3F5006F00F38480012860
S214004A7401D1002F7FD0484B03EB05131B7B002B83
S214004A847BD0464C1022002168462DF06FFF04EBC5
S214004A9445141022B9F1000F5CD1494620462DF08A
S214004AA465FFA37843F01003A370E37843F0300364
S214004AB4E370BAF1000F03D1DBB243F00303E370F3
S214004AC436496A01129B885A013B63F30E100E9B0B
S214004AD401EB020C8852CCF808300F9B9DF84C1062
S214004AE4CCF804309CF80330012E61F38303CDF830
S214004AF400B08CF8033042D113230CF1100ECCF81E
S214004B040C309CE80F008EE80F006FF00301DCF811
S214004B141C20B9F1010F61F39F02CCF81C20CCF8DD
S214004B24147004D10F9BCCF80470CCF8183000270E
S214004B3419492A018B1841F80280159A28465A60AA
S214004B449F605E732246694602F098FD384605B0BB
S214004B54BDE8F08F002120462DF008FF1023A37037
S214004B640323E370BAF1000FAAD1DBB243F030039B
S214004B74A5E70B48EBE70B48E9E70B48E7E7B8F18E
S214004B84000FD4D19CF8023068F304138CF802307A
S214004B94CDE700BF882E0020082D0020882D002099
S214004BA4028000F0018000F0078000F038B5104B5A
S214004BB405461B78BBB1C0B102F06BF900230D4962
S214004BC401EB0312147B3CB92B60012314601373AE
S214004BD402F065F9204638BD0133082BF0D102F007
S214004BE45EF90548F7E70548F5E70548F3E700BF2B
S214004BF4882E0020082D0020048000F0028000F09B
S214004C04018000F038B502F044F9002305460A4A4C
S214004C14D1180C7B5CB91033802BF9D102F0E0FC80
S214004C24064B28461C7002F03AF9204638BD284642
S214004C3402F035F90248F9E7082D0020882E0020F6
S214004C44058000F00D4B10B51B78044693B1072879
S214004C5412D802F01EF90A4B03EB04131A7B2AB18E
S214004C6400241C7302F01BF9204610BD02F017F94D
S214004C740448FAE70448F8E70448F6E7882E0020D4
S214004C84082D0020068000F0028000F0018000F06D
S214004C94164B13B51868002301908DF8043002F003
S214004CA4F8F8134B1C7824B102F0F9F8114802B056
S214004CB410BD01221A7002F0F2F80F4B1C731C7719
S214004CC483F82C4083F83C4083F84C4083F85C40DF
S214004CD483F86C4083F87C4004230DEB03008DF8C6
S214004CE4073002F0A1FC2046E1E700BFC85B0300E2
S214004CF4882E0020038000F0082D002010B588B010
S214004D040E9C009207940D9C024606949DF8304033
S214004D1405940B9C04949DF8284003940024CDE944
S214004D24013420460B462146FFF780FE08B010BD2E
S214004D3410B588B00E9C009207940D9C024606940B
S214004D449DF8304005940B9C04949DF828400394E9
S214004D540024CDE9013420460B460121FFF766FE08
S214004D6408B010BD08B50A4B1B785BB107280BD8F2
S214004D74084B03EB00131B7B43B1002102F044FCF9
S214004D84002008BD0448FCE70448FAE70448F8E7AE
S214004D94882E0020082D0020028000F0018000F0FC
S214004DA4078000F008B50A4B1B785BB107280BD8C0
S214004DB4084B03EB00131B7B43B1012102F024FCD8
S214004DC4002008BD0448FCE70448FAE70448F8E76E
S214004DD4882E0020082D0020028000F0018000F0BC
S214004DE4078000F008B50A4B1B7853B107280AD889
S214004DF4084B03EB00131B7B3BB102F08FFC002037
S214004E0408BD0548FCE70548FAE70548F8E700BF8B
S214004E14882E0020082D0020028000F0018000F07B
S214004E24078000F00D4B1B7893B1072812D889B180
S214004E340B4B03EB00131B7B73B10A4BDA6A01239B
S214004E4403FA00F010401ABF00200B700870704779
S214004E54054870470548704705487047882E002067
S214004E64082D002000000440028000F0018000F0BD
S214004E74078000F00B4B10B51B780C4663B107286F
S214004E840CD859B1084B03EB00131B7B43B102F05B
S214004E9457FC2060002010BD0448FCE70448FAE7ED
S214004EA40448F8E7882E0020082D0020028000F031
S214004EB4018000F0078000F02DE9F843174B1F6DC2
S214004EC45B6D1F4000D5FEE701260025144CDFF875
S214004ED45480DFF85490374217D02368C8F800602F
S214004EE49BB1A16862680131A16028469847637B3C
S214004EF4012B0AD148B909EB4513197B1A7F60F3D5
S214004F04410160F3410219731A770135082D4FEAFF
S214004F14460604F11004DED1BDE8F8830000044020
S214004F24082D002050200440882D002070B504462B
S214004F340125084E04B970BD94FAA4F0B0FA80F0C6
S214004F4405FA00F324EA030456F82030002BF1D0C7
S214004F549847EFE78C2E00204FF00072044BC3F8FE
S214004F6480211A604FF08062C3F880211A6070476F
S214004F7400E100E038B504460D4601F08AFF034B15
S214004F8443F82450BDE8384001F089BF8C2E002039
S214004F94084BD3F82404D3F82024104042F22042CD
S214004FA420F42A5020F02A004004400C9850FFF7C2
S214004FB4BDBF00BF00C00340084BD3F82404D3F899
S214004FC42024104042F2204220F4AA4020F055004B
S214004FD40004000C9850FFF7A9BF00BF00C00340B0
S214004FE4104A30B5136841611546ABB9106083604A
S214004FF411E0091B9C6841611A467CB123465C6932
S2140050048C42F6D9002CF4D052B19060836013B170
S2140050145A69511A596130BD0022F0E72346F4E775
S2140050242860F3E7E02E002010B500F0B1FA094B33
S214005034094A196831B11368C41A4B69A34203D3E9
S2140050441B1B4B61106003E0C01A002310604B6109
S21400505410BD00BFE02E0020D02E0020074B10B558
S2140050641B6802205C69064B1B681C4400F0C4FAEB
S2140050742046BDE8104000F093BA00BFE02E0020A2
S214005084D02E002070B59DF81450164605710025E4
S214005094049A8560BDF818500446C5800260C0E9CD
S2140050A403360D4629B961610BB11146984796B18E
S2140050B4354601F0EEFE0646FFF7B6FF29462046C3
S2140050C4FFF78EFF054B1B68A34201D1FFF7C6FF0F
S2140050D4304601F0E4FE002070BD00BFE02E002044
S2140050E400210C4A13687BB183420AD1836879B1E4
S2140050F48B6083681BB15A6941690A445A6100206F
S214005104704719469B68EEE70028EFD002207047E8
S2140051141360EEE7E02E002070B501F0BAFE114DE4
S21400512406462C78CCB9104B1C60104B1C60104BF8
S2140051341C8000F0F3F9012000F05EFA00F0AAFAF1
S2140051440C4B0246186040F2E73123460A482DF01D
S2140051542BFA0A4B186001232B70304601F09FFE91
S214005164002070BDCC2E0020E02E0020D02E002083
S214005174D82E0020DC2E002018FCFFFFD42E0020A2
S2140051842DE9F0410546F8B101F083FE0F4F0646BF
S214005194FFF74AFF2846D7F80080FFF7A1FF04462A
S2140051A428B1304601F07BFE2046BDE8F081A845D4
S2140051B43B6803D123B1FFF751FFF2E7002BF0D190
S2140051C4022000F025FAECE72224EDE7E02E00208A
S2140051D4F0B50D4685B016461F46044680B1FFF767
S2140051E4CFFFBDF82C30002202939DF828302946C4
S2140051F4CDE9007320463346FFF744FF05B0F0BD03
S2140052042220FBE738B50C46054698B191B1002339
S2140052140B7001F03EFE0121074B1B680BB1227890
S2140052241AB101F03CFE002038BD9D420CBF21702F
S2140052349B68F3E72220F7E7E02E0020F0B51F4630
S214005244002387B00D4616468DF817300446A0B1E5
S2140052540DF11701FFF7D6FF9DF817207AB9BDF8B0
S2140052643430294602939DF830302046CDE9007349
S2140052743346FFF707FF07B0F0BD2220FBE7032005
S214005284F9E70000F8B50C460646C8B1C1B101F00E
S21400529400FE0546FFF7C8FE73692360134B1B68C0
S2140052A4B3420FD023B9284601F0F9FD03201CE0D1
S2140052B4596922689B680A442260F1E700230FE0DC
S2140052C4222012E0276800F063F9094E3368C01AFA
S2140052D48742F3D900F05CF93368C01A23681B1AB6
S2140052E42846236001F0DBFD0020F8BDE02E0020F8
S2140052F4D02E002070B501F0CCFD064600F048F92B
S214005304094B05461C880120A4B200F099F918B18F
S21400531400F03EF905460134304601F0C0FD002297
S214005324214642EA050070BDD82E00200A4B10B56F
S2140053341B680C4683420CD3084B4FF47A721968E8
S2140053440023A0FB01012DF02FF90130206000207E
S21400535410BD2120FCE700BFD42E0020DC2E002048
S214005364104B10B51A684FF47A73A0FB0301A2B170
S214005374531E134211D1B2FA82F2C2F11F02C2F1D5
S2140053842004A2F1200301FA04F420FA02F22243D4
S21400539421FA03F342EA030010BD00232DF004F9BA
S2140053A4FAE700BFDC2E002000000000F8B5164621
S2140053B41BA3D3E900238B4208BF82422AD3174B90
S2140053C41A684FF47A73A0FB034503FB0155C2B178
S2140053D4531E13EA020014D1B2FA82F2C2F11F027B
S2140053E4C2F12007A2F1200124FA02F305FA07F716
S2140053F43B4325FA01F10B4325FA02F2C6E90032D3
S214005404F8BD0023204629462DF0CEF8C6E9000153
S2140054140020F5E72120F3E7AFF30080DC2E002020
S214005424EFA7C64B37894100C2072DE9F84F04465B
S2140054340BD5374A138801339BB21380FFF7F4FD6C
S214005444344B1B680BB1FFF709FEA3075DD500F0CC
S2140054549FF8314E074635684FF0000A451B01F0A9
S21400546418FD8046DFF8AC90D9F80040002C48D0F0
S2140054746369AB4209D95D1B65613760FFF7EEFDD2
S2140054844046BDE8F84F01F00ABD23462A46376079
S2140054945969914209D8187994F804C0521A844577
S2140054A488BF1C469B68002BF2D1404601F0F7FCEF
S2140054B4D4F81480C4F814A001F0EBFC834620460C
S2140054C4FFF70EFE584601F0EAFC23694BB101F0E3
S2140054D4E0FC834621692046FFF782FD584601F02A
S2140054E4DEFCE36813B121682046984700F050F8C4
S2140054F44744ED1B0446054401F0CBFC2746804692
S214005504B2E7022000F084F8BAE7BDE8F88F00BFDF
S214005514D82E0020E02E0020D02E00201FB5002418
S214005524184B18689A88029053F8060FADF80C20AA
S2140055341B79009002A88DF804308DF808408DF889
S2140055440C4002F087F9694601208DF8004002F00D
S21400555445F94FF090431F219A6922F01F029A6181
S214005564094A11609A6A12F00802FBD11A620120F5
S21400557402F04EF94FF48062044BC3F880211A609F
S21400558404B010BDCC5B03001420004800E100E02A
S2140055944FF090439A6A1207FCD4186A70470000CA
S2140055A44FF09042936A1907FCD4136A116C52693F
S2140055B4120704D4CA1A022A01D899420ED1C21A72
S2140055C4012A98BF981CB0F1FF3F28BF01304FF066
S2140055D4904318649A6942F008029A61054A13785F
S2140055E43BB14FF09041CB6B43F00203CB630023F7
S2140055F413707047B81E002082074FF0904200F0E8
S2140056040103916948BF43F008030B439361704755
S214005614830700F001020AD50121084B42F0080274
S21400562419704FF09041CB6B23F00303CB634FF01C
S21400563490418B6923EA02038B617047B81E0020F1
S2140056444FF0904301285B6904D0022805D1C3F3C8
S214005654C000704703F00100704700207047000048
S21400566410B501F016FC4FF0904304465B691A0728
S214005674074A03F0010003F00D0348BF40F00200A0
S2140056841360FFF7D1FE2046BDE8104001F007BCCA
S214005694142000481B2001F00DB90000002211461A
S2140056A42D48F0B503682D4D54592CB11E68AC181E
S2140056B4002E3DD1234601210832282AF4D101B117
S2140056C40360002214462649264E0B6895592DB1D0
S2140056D41F68B518002F32D12B4601240832282A19
S2140056E4F4D104B10B6000680368002B2FD04FF090
S2140056F44022936F007923F0FF7323F4803343EA48
S21400570400439367184B4FF0004209681A600B6811
S214005714FBB14FF04022936F097923F4FF7323F013
S21400572401030B439367104B4FF080421A60F0BDA1
S2140057341E792779B74284BF23460121BCE71F7927
S21400574495F804C0BC453CBF2B460124C6E7074B6E
S214005754D9E7064BE8E700BFE82E0020F82E002025
S214005764EC2E0020202F0020685000406860004087
S21400577410B5012228240F4B00211A700E48224629
S2140057842DF0F4F8224600210C482DF0EFF80C4BCF
S2140057940C4A13600C4A13604FF040430B4A1360E4
S2140057A4536020220A4BC3F880211A60FFF776FF65
S2140057B4002010BDE42E0020F82E0020202F00200C
S2140057C4F02E0020E82E0020EC2E0020646000401E
S2140057D400E100E04FF04022D2F88800D2F888308A
S2140057E4C0F38800C3F388039842F5D16FF4887336
S2140057F4184440B2704700004FF04022936E526E39
S21400580410B5134013F0804211D0114B1B681C686E
S2140058142CB1002119605960FFF7DCFFA0474FF058
S21400582480420C4B1A60BDE81040FFF737BF002BD0
S214005834F9DA094B1B681C682CB11A605A60FFF72A
S214005844C9FF0121A047034B4FF00042EAE700BF1F
S214005854EC2E002064600040E82E0020FFF7CCBF4A
S214005864012203685A619A69D207FCD541F2AC5208
S214005874042103795B0103F1804303F570339950E7
S2140058847047000038B141B1013AB2F5006F0448E0
S21400589438BF00207047034870470148704700BF70
S2140058A4037000F0027000F038B504460D4601F0AF
S2140058B4F0FAA28892B222B92A6001F0F0FA0648F9
S2140058C438BD1422638802FB034308332B6001F0BF
S2140058D4E6FA0020F4E700BF0B7000F038B5044683
S2140058E40D4601F0D6FAA3889BB223B92B6001F0CB
S2140058F4D6FA0C4838BD14226388E18802FB0343B9
S21400590408332B6063885A1C92FBF1F301FB1323C4
S2140059149BB26380A388013B9BB2A38001F0BFFACD
S2140059240020E7E70B7000F090F83130022B0BD123
S2140059343022437F90F821005A43044B9B5823FAA5
S21400594400F000F0010070470020704714C00340C8
S214005954002313B51C4A52F8234094F821108142C0
S2140059640ED00133042BF6D102B010BD0028FBD1B3
S2140059749DF80730002BF7D0A068FFF7F3F9F3E79C
S21400598494F83130022BEFD12046FFF7CDFF637E2B
S2140059942076022BE8D194F82E3003F0FF02002B79
S2140059A4E2D102A901F8012DA068FFF73BFA237E95
S2140059B41BB194F82F30002BD8D00023A06884F8AD
